{
  "contractName": "Stake",
  "abi": [
    {
      "inputs": [
        {
          "internalType": "address",
          "name": "_tokenAddress",
          "type": "address"
        },
        {
          "internalType": "uint256",
          "name": "_rewardRate",
          "type": "uint256"
        }
      ],
      "stateMutability": "nonpayable",
      "type": "constructor"
    },
    {
      "anonymous": false,
      "inputs": [
        {
          "indexed": true,
          "internalType": "address",
          "name": "user",
          "type": "address"
        },
        {
          "indexed": false,
          "internalType": "uint256",
          "name": "rewards",
          "type": "uint256"
        }
      ],
      "name": "RewardsClaimed",
      "type": "event"
    },
    {
      "anonymous": false,
      "inputs": [
        {
          "indexed": true,
          "internalType": "address",
          "name": "user",
          "type": "address"
        },
        {
          "indexed": false,
          "internalType": "uint256",
          "name": "_rewardRate",
          "type": "uint256"
        }
      ],
      "name": "Staked",
      "type": "event"
    },
    {
      "anonymous": false,
      "inputs": [
        {
          "indexed": true,
          "internalType": "address",
          "name": "user",
          "type": "address"
        },
        {
          "indexed": false,
          "internalType": "uint256",
          "name": "amount",
          "type": "uint256"
        },
        {
          "indexed": false,
          "internalType": "uint256",
          "name": "rewards",
          "type": "uint256"
        }
      ],
      "name": "Unstaked",
      "type": "event"
    },
    {
      "inputs": [],
      "name": "rewardRate",
      "outputs": [
        {
          "internalType": "uint256",
          "name": "",
          "type": "uint256"
        }
      ],
      "stateMutability": "view",
      "type": "function"
    },
    {
      "inputs": [
        {
          "internalType": "address",
          "name": "",
          "type": "address"
        }
      ],
      "name": "stakers",
      "outputs": [
        {
          "internalType": "uint256",
          "name": "stakedBalance",
          "type": "uint256"
        },
        {
          "internalType": "uint256",
          "name": "stakingStartTime",
          "type": "uint256"
        },
        {
          "internalType": "uint256",
          "name": "rewardsEarned",
          "type": "uint256"
        },
        {
          "internalType": "uint256",
          "name": "lastRewardCalculationTime",
          "type": "uint256"
        }
      ],
      "stateMutability": "view",
      "type": "function"
    },
    {
      "inputs": [],
      "name": "token",
      "outputs": [
        {
          "internalType": "contract IERC20",
          "name": "",
          "type": "address"
        }
      ],
      "stateMutability": "view",
      "type": "function"
    },
    {
      "inputs": [
        {
          "internalType": "uint256",
          "name": "amount",
          "type": "uint256"
        }
      ],
      "name": "stake",
      "outputs": [],
      "stateMutability": "nonpayable",
      "type": "function"
    },
    {
      "inputs": [
        {
          "internalType": "address",
          "name": "userAddress",
          "type": "address"
        }
      ],
      "name": "calculateRewards",
      "outputs": [
        {
          "internalType": "uint256",
          "name": "",
          "type": "uint256"
        }
      ],
      "stateMutability": "view",
      "type": "function"
    },
    {
      "inputs": [],
      "name": "unstake",
      "outputs": [],
      "stateMutability": "nonpayable",
      "type": "function"
    },
    {
      "inputs": [],
      "name": "claimRewards",
      "outputs": [],
      "stateMutability": "nonpayable",
      "type": "function"
    }
  ],
  "bytecode": "0x608060405234801561001057600080fd5b50604051610ace380380610ace8339818101604052604081101561003357600080fd5b810190808051906020019092919080519060200190929190505050816000806101000a81548173ffffffffffffffffffffffffffffffffffffffff021916908373ffffffffffffffffffffffffffffffffffffffff160217905550806001819055505050610a28806100a66000396000f3fe608060405234801561001057600080fd5b506004361061007d5760003560e01c80637b0a47ee1161005b5780637b0a47ee146100ee5780639168ae721461010c578063a694fc3a14610179578063fc0c546a146101a75761007d565b80632def662014610082578063372500ab1461008c57806364ab867514610096575b600080fd5b61008a6101db565b005b610094610414565b005b6100d8600480360360208110156100ac57600080fd5b81019080803573ffffffffffffffffffffffffffffffffffffffff16906020019092919050505061068c565b6040518082815260200191505060405180910390f35b6100f6610706565b6040518082815260200191505060405180910390f35b61014e6004803603602081101561012257600080fd5b81019080803573ffffffffffffffffffffffffffffffffffffffff16906020019092919050505061070c565b6040518085815260200184815260200183815260200182815260200194505050505060405180910390f35b6101a56004803603602081101561018f57600080fd5b810190808035906020019092919050505061073c565b005b6101af6109ce565b604051808273ffffffffffffffffffffffffffffffffffffffff16815260200191505060405180910390f35b6000600260003373ffffffffffffffffffffffffffffffffffffffff1673ffffffffffffffffffffffffffffffffffffffff16815260200190815260200160002090506000816000015411610298576040517f08c379a00000000000000000000000000000000000000000000000000000000081526004018080602001828103825260108152602001807f4e6f20746f6b656e73207374616b65640000000000000000000000000000000081525060200191505060405180910390fd5b60006102a33361068c565b905080826002016000828254019250508190555060008054906101000a900473ffffffffffffffffffffffffffffffffffffffff1673ffffffffffffffffffffffffffffffffffffffff1663a9059cbb3384600201548560000154016040518363ffffffff1660e01b8152600401808373ffffffffffffffffffffffffffffffffffffffff16815260200182815260200192505050602060405180830381600087803b15801561035257600080fd5b505af1158015610366573d6000803e3d6000fd5b505050506040513d602081101561037c57600080fd5b810190808051906020019092919050505050600082600001819055506000826002018190555060008260010181905550600082600301819055503373ffffffffffffffffffffffffffffffffffffffff167f7fc4727e062e336010f2c282598ef5f14facb3de68cf8195c2f23e1454b2b74e836000015483604051808381526020018281526020019250505060405180910390a25050565b6000600260003373ffffffffffffffffffffffffffffffffffffffff1673ffffffffffffffffffffffffffffffffffffffff168152602001908152602001600020905060006104623361068c565b9050600081116104da576040517f08c379a00000000000000000000000000000000000000000000000000000000081526004018080602001828103825260138152602001807f4e6f207265776172647320746f20636c61696d0000000000000000000000000081525060200191505060405180910390fd5b80826002016000828254019250508190555042826003018190555060008060009054906101000a900473ffffffffffffffffffffffffffffffffffffffff1673ffffffffffffffffffffffffffffffffffffffff1663a9059cbb33846040518363ffffffff1660e01b8152600401808373ffffffffffffffffffffffffffffffffffffffff16815260200182815260200192505050602060405180830381600087803b15801561058957600080fd5b505af115801561059d573d6000803e3d6000fd5b505050506040513d60208110156105b357600080fd5b8101908080519060200190929190505050905080610639576040517f08c379a00000000000000000000000000000000000000000000000000000000081526004018080602001828103825260158152602001807f546f6b656e207472616e73666572206661696c6564000000000000000000000081525060200191505060405180910390fd5b3373ffffffffffffffffffffffffffffffffffffffff167ffc30cddea38e2bf4d6ea7d3f9ed3b6ad7f176419f4963bd81318067a4aee73fe836040518082815260200191505060405180910390a2505050565b600080600260008473ffffffffffffffffffffffffffffffffffffffff1673ffffffffffffffffffffffffffffffffffffffff168152602001908152602001600020905060008160030154420390506000670de0b6b3a76400008260015485600001540202816106f857fe5b049050809350505050919050565b60015481565b60026020528060005260406000206000915090508060000154908060010154908060020154908060030154905084565b600081116107b2576040517f08c379a000000000000000000000000000000000000000000000000000000000815260040180806020018281038252601d8152602001807f416d6f756e74206d7573742062652067726561746572207468616e203000000081525060200191505060405180910390fd5b60008060009054906101000a900473ffffffffffffffffffffffffffffffffffffffff1673ffffffffffffffffffffffffffffffffffffffff166323b872dd3330856040518463ffffffff1660e01b8152600401808473ffffffffffffffffffffffffffffffffffffffff1681526020018373ffffffffffffffffffffffffffffffffffffffff1681526020018281526020019350505050602060405180830381600087803b15801561086457600080fd5b505af1158015610878573d6000803e3d6000fd5b505050506040513d602081101561088e57600080fd5b8101908080519060200190929190505050905080610914576040517f08c379a00000000000000000000000000000000000000000000000000000000081526004018080602001828103825260158152602001807f546f6b656e207472616e73666572206661696c6564000000000000000000000081525060200191505060405180910390fd5b6000600260003373ffffffffffffffffffffffffffffffffffffffff1673ffffffffffffffffffffffffffffffffffffffff16815260200190815260200160002090508281600001600082825401925050819055504281600101819055504281600301819055503373ffffffffffffffffffffffffffffffffffffffff167f9e71bc8eea02a63969f509818f2dafb9254532904319f9dbda79b67bd34a5f3d846040518082815260200191505060405180910390a2505050565b60008054906101000a900473ffffffffffffffffffffffffffffffffffffffff168156fea264697066735822122015310cfa75ba06a2eda328851975c9bd8de72d27929fb9eaecb3cdf331f06e9864736f6c634300060c0033",
  "immutableReferences": {},
  "source": "// SPDX-License-Identifier: MIT\n\npragma solidity >=0.4.25 <0.7.0;\n\n// ERC-20 Interface\ninterface IERC20 {\n    function transferFrom(\n        address sender,\n        address recipient,\n        uint256 amount\n    ) external returns (bool);\n    function balanceOf(address account) external view returns (uint256);\n    function transfer(\n        address recipient,\n        uint256 amount\n    ) external returns (bool);\n    function approve(address spender, uint256 amount) external returns (bool);\n    function allowance(\n        address owner,\n        address spender\n    ) external view returns (uint256);\n}\n\ncontract Stake {\nIERC20 public token;\n    uint256 public rewardRate;\n    // Creating a data structure for each user's staked balance\n    struct StakingDetails {\n        uint256 stakedBalance;\n        uint256 stakingStartTime;\n        uint256 rewardsEarned;\n        uint256 lastRewardCalculationTime;\n    }\n\n    mapping(address => StakingDetails) public stakers;\n\n    // Creating events to send the updates to frontend\n    event Staked(address indexed user, uint256 _rewardRate);\n    event Unstaked(address indexed user, uint256 amount, uint256 rewards);\n    event RewardsClaimed(address indexed user, uint256 rewards);\n\n    // Constructor to initialize the token contract address and reward rate\n    constructor (address _tokenAddress, uint256 _rewardRate) public {\n        token = IERC20(_tokenAddress);\n        rewardRate = _rewardRate;\n    }\n\n    // To accept token deposits\n    function stake(uint256 amount) external {\n        // To check if the user's amount is greater than 0 to deposit\n        require(amount > 0, \"Amount must be greater than 0\");\n\n        // Transfer token from the user to the contract\n        bool success = token.transferFrom(msg.sender, address(this), amount);\n        require(success, \"Token transfer failed\");\n\n        // Update the user's staking details\n        StakingDetails storage user = stakers[msg.sender];\n        user.stakedBalance += amount;\n        user.stakingStartTime = block.timestamp;\n        user.lastRewardCalculationTime = block.timestamp;\n\n        emit Staked(msg.sender, amount);\n    }\n\n    // To calculate user staking rewards\n    function calculateRewards(\n        address userAddress\n    ) public view returns (uint256) {\n        StakingDetails storage user = stakers[userAddress];\n        uint256 timeElapsed = block.timestamp - user.lastRewardCalculationTime;\n        uint256 rewards = (user.stakedBalance * rewardRate * timeElapsed) /\n            1e18;\n        return rewards;\n    }\n\n    function unstake() external {\n        StakingDetails storage user = stakers[msg.sender];\n        require(user.stakedBalance > 0, \"No tokens staked\");\n\n        // Calculate rewards\n        uint256 rewards = calculateRewards(msg.sender);\n        user.rewardsEarned += rewards;\n\n        // Transfer staked tokens and rewards to the user\n        token.transfer(msg.sender, user.stakedBalance + user.rewardsEarned);\n\n        user.stakedBalance = 0;\n        user.rewardsEarned = 0;\n        user.stakingStartTime = 0;\n        user.lastRewardCalculationTime = 0;\n\n        emit Unstaked(msg.sender, user.stakedBalance, rewards);\n    }\n\n    // To claim rewards without unstake\n    function claimRewards() external {\n        StakingDetails storage user = stakers[msg.sender];\n        uint256 rewards = calculateRewards(msg.sender);\n        require(rewards > 0, \"No rewards to claim\");\n\n        user.rewardsEarned += rewards;\n        user.lastRewardCalculationTime = block.timestamp;\n\n        bool success = token.transfer(msg.sender, rewards);\n        require(success, \"Token transfer failed\");\n\n        emit RewardsClaimed(msg.sender, rewards);\n    }\n}\n",
  "sourcePath": "/Users/muhammadusman/Desktop/projects/assessments/Elo-DApp/Truffle/contracts/Stake.sol",
  "compiler": {
    "name": "solc",
    "version": "0.6.12+commit.27d51765.Emscripten.clang"
  },
  "schemaVersion": "3.4.16",
  "updatedAt": "2025-03-05T16:58:31.486Z",
  "devdoc": {
    "kind": "dev",
    "methods": {},
    "version": 1
  },
  "userdoc": {
    "kind": "user",
    "methods": {},
    "version": 1
  },
  "db": {
    "callBytecode": {
      "id": "0xa459e0e952e4a9bebd9996beaf3f4eb8ad9cac8b6f1e629c22d331658249a3cd"
    },
    "createBytecode": {
      "id": "0xaa82ebf6773f5793644d5f45e44611829c9f041667c5be165ee45b151fc01c5e"
    },
    "contract": {
      "id": "0x2db5b0f7671f683360c7ee1df453073c9c389a1c513f2b9a8b16e94a3b9045c9"
    }
  }
}